{
  "address": "0x5FbDB2315678afecb367f032d93F642f64180aa3",
  "abi": [
    {
      "anonymous": false,
      "inputs": [
        {
          "indexed": true,
          "internalType": "uint256",
          "name": "badgeId",
          "type": "uint256"
        },
        {
          "indexed": true,
          "internalType": "uint256",
          "name": "courseId",
          "type": "uint256"
        },
        {
          "indexed": true,
          "internalType": "address",
          "name": "earner",
          "type": "address"
        },
        {
          "indexed": false,
          "internalType": "string",
          "name": "badgeCID",
          "type": "string"
        }
      ],
      "name": "BadgeClaimed",
      "type": "event"
    },
    {
      "anonymous": false,
      "inputs": [
        {
          "indexed": true,
          "internalType": "uint256",
          "name": "courseId",
          "type": "uint256"
        },
        {
          "indexed": true,
          "internalType": "address",
          "name": "creator",
          "type": "address"
        },
        {
          "indexed": false,
          "internalType": "string",
          "name": "courseCID",
          "type": "string"
        }
      ],
      "name": "CourseForged",
      "type": "event"
    },
    {
      "anonymous": false,
      "inputs": [
        {
          "indexed": true,
          "internalType": "uint256",
          "name": "proofId",
          "type": "uint256"
        },
        {
          "indexed": true,
          "internalType": "uint256",
          "name": "courseId",
          "type": "uint256"
        },
        {
          "indexed": true,
          "internalType": "address",
          "name": "learner",
          "type": "address"
        },
        {
          "indexed": false,
          "internalType": "string",
          "name": "proofCID",
          "type": "string"
        }
      ],
      "name": "ProofSubmitted",
      "type": "event"
    },
    {
      "anonymous": false,
      "inputs": [
        {
          "indexed": true,
          "internalType": "uint256",
          "name": "proofId",
          "type": "uint256"
        },
        {
          "indexed": true,
          "internalType": "address",
          "name": "validator",
          "type": "address"
        },
        {
          "indexed": false,
          "internalType": "enum SkillForge.ProofStatus",
          "name": "status",
          "type": "uint8"
        }
      ],
      "name": "ProofValidated",
      "type": "event"
    },
    {
      "anonymous": false,
      "inputs": [
        {
          "indexed": true,
          "internalType": "address",
          "name": "validator",
          "type": "address"
        },
        {
          "indexed": false,
          "internalType": "bool",
          "name": "authorized",
          "type": "bool"
        }
      ],
      "name": "ValidatorGranted",
      "type": "event"
    },
    {
      "inputs": [
        {
          "internalType": "address",
          "name": "",
          "type": "address"
        }
      ],
      "name": "authorizedValidators",
      "outputs": [
        {
          "internalType": "bool",
          "name": "",
          "type": "bool"
        }
      ],
      "stateMutability": "view",
      "type": "function"
    },
    {
      "inputs": [
        {
          "internalType": "uint256",
          "name": "",
          "type": "uint256"
        }
      ],
      "name": "badges",
      "outputs": [
        {
          "internalType": "uint256",
          "name": "courseId",
          "type": "uint256"
        },
        {
          "internalType": "address",
          "name": "earner",
          "type": "address"
        },
        {
          "internalType": "string",
          "name": "badgeCID",
          "type": "string"
        },
        {
          "internalType": "euint64",
          "name": "encryptedTotalScore",
          "type": "bytes32"
        },
        {
          "internalType": "uint256",
          "name": "claimedAt",
          "type": "uint256"
        }
      ],
      "stateMutability": "view",
      "type": "function"
    },
    {
      "inputs": [
        {
          "internalType": "uint256[]",
          "name": "proofIds",
          "type": "uint256[]"
        }
      ],
      "name": "calculateTotalScore",
      "outputs": [
        {
          "internalType": "euint32",
          "name": "",
          "type": "bytes32"
        }
      ],
      "stateMutability": "nonpayable",
      "type": "function"
    },
    {
      "inputs": [
        {
          "internalType": "uint256",
          "name": "courseId",
          "type": "uint256"
        },
        {
          "internalType": "string",
          "name": "badgeCID",
          "type": "string"
        },
        {
          "internalType": "externalEuint64",
          "name": "encryptedTotalScore",
          "type": "bytes32"
        },
        {
          "internalType": "bytes",
          "name": "inputProof",
          "type": "bytes"
        }
      ],
      "name": "claimBadge",
      "outputs": [
        {
          "internalType": "uint256",
          "name": "badgeId",
          "type": "uint256"
        }
      ],
      "stateMutability": "nonpayable",
      "type": "function"
    },
    {
      "inputs": [
        {
          "internalType": "uint256",
          "name": "",
          "type": "uint256"
        }
      ],
      "name": "courses",
      "outputs": [
        {
          "internalType": "address",
          "name": "creator",
          "type": "address"
        },
        {
          "internalType": "string",
          "name": "courseCID",
          "type": "string"
        },
        {
          "internalType": "euint32",
          "name": "totalChallenges",
          "type": "bytes32"
        },
        {
          "internalType": "euint32",
          "name": "completedChallenges",
          "type": "bytes32"
        },
        {
          "internalType": "bool",
          "name": "active",
          "type": "bool"
        },
        {
          "internalType": "uint256",
          "name": "forgedAt",
          "type": "uint256"
        }
      ],
      "stateMutability": "view",
      "type": "function"
    },
    {
      "inputs": [
        {
          "internalType": "string",
          "name": "courseCID",
          "type": "string"
        },
        {
          "internalType": "externalEuint32",
          "name": "encryptedTotalChallenges",
          "type": "bytes32"
        },
        {
          "internalType": "bytes",
          "name": "inputProof",
          "type": "bytes"
        }
      ],
      "name": "forgeCourse",
      "outputs": [
        {
          "internalType": "uint256",
          "name": "courseId",
          "type": "uint256"
        }
      ],
      "stateMutability": "nonpayable",
      "type": "function"
    },
    {
      "inputs": [
        {
          "internalType": "uint256",
          "name": "badgeId",
          "type": "uint256"
        }
      ],
      "name": "getBadge",
      "outputs": [
        {
          "internalType": "uint256",
          "name": "courseId",
          "type": "uint256"
        },
        {
          "internalType": "address",
          "name": "earner",
          "type": "address"
        },
        {
          "internalType": "string",
          "name": "badgeCID",
          "type": "string"
        },
        {
          "internalType": "uint256",
          "name": "claimedAt",
          "type": "uint256"
        }
      ],
      "stateMutability": "view",
      "type": "function"
    },
    {
      "inputs": [
        {
          "internalType": "uint256",
          "name": "badgeId",
          "type": "uint256"
        }
      ],
      "name": "getBadgeEncryptedScore",
      "outputs": [
        {
          "internalType": "bytes32",
          "name": "encryptedTotalScoreHandle",
          "type": "bytes32"
        }
      ],
      "stateMutability": "view",
      "type": "function"
    },
    {
      "inputs": [
        {
          "internalType": "uint256",
          "name": "courseId",
          "type": "uint256"
        }
      ],
      "name": "getCourse",
      "outputs": [
        {
          "internalType": "address",
          "name": "creator",
          "type": "address"
        },
        {
          "internalType": "string",
          "name": "courseCID",
          "type": "string"
        },
        {
          "internalType": "bool",
          "name": "active",
          "type": "bool"
        },
        {
          "internalType": "uint256",
          "name": "forgedAt",
          "type": "uint256"
        }
      ],
      "stateMutability": "view",
      "type": "function"
    },
    {
      "inputs": [
        {
          "internalType": "uint256",
          "name": "proofId",
          "type": "uint256"
        }
      ],
      "name": "getProof",
      "outputs": [
        {
          "internalType": "uint256",
          "name": "courseId",
          "type": "uint256"
        },
        {
          "internalType": "uint256",
          "name": "challengeId",
          "type": "uint256"
        },
        {
          "internalType": "address",
          "name": "learner",
          "type": "address"
        },
        {
          "internalType": "string",
          "name": "proofCID",
          "type": "string"
        },
        {
          "internalType": "enum SkillForge.ProofStatus",
          "name": "status",
          "type": "uint8"
        },
        {
          "internalType": "address",
          "name": "validator",
          "type": "address"
        },
        {
          "internalType": "uint256",
          "name": "submittedAt",
          "type": "uint256"
        }
      ],
      "stateMutability": "view",
      "type": "function"
    },
    {
      "inputs": [
        {
          "internalType": "uint256",
          "name": "proofId",
          "type": "uint256"
        }
      ],
      "name": "getProofEncryptedScore",
      "outputs": [
        {
          "internalType": "bytes32",
          "name": "encryptedScoreHandle",
          "type": "bytes32"
        }
      ],
      "stateMutability": "view",
      "type": "function"
    },
    {
      "inputs": [
        {
          "internalType": "address",
          "name": "validator",
          "type": "address"
        },
        {
          "internalType": "bool",
          "name": "authorized",
          "type": "bool"
        }
      ],
      "name": "grantValidatorRole",
      "outputs": [],
      "stateMutability": "nonpayable",
      "type": "function"
    },
    {
      "inputs": [],
      "name": "nextBadgeId",
      "outputs": [
        {
          "internalType": "uint256",
          "name": "",
          "type": "uint256"
        }
      ],
      "stateMutability": "view",
      "type": "function"
    },
    {
      "inputs": [],
      "name": "nextCourseId",
      "outputs": [
        {
          "internalType": "uint256",
          "name": "",
          "type": "uint256"
        }
      ],
      "stateMutability": "view",
      "type": "function"
    },
    {
      "inputs": [],
      "name": "nextProofId",
      "outputs": [
        {
          "internalType": "uint256",
          "name": "",
          "type": "uint256"
        }
      ],
      "stateMutability": "view",
      "type": "function"
    },
    {
      "inputs": [
        {
          "internalType": "uint256",
          "name": "",
          "type": "uint256"
        }
      ],
      "name": "proofs",
      "outputs": [
        {
          "internalType": "uint256",
          "name": "courseId",
          "type": "uint256"
        },
        {
          "internalType": "uint256",
          "name": "challengeId",
          "type": "uint256"
        },
        {
          "internalType": "address",
          "name": "learner",
          "type": "address"
        },
        {
          "internalType": "string",
          "name": "proofCID",
          "type": "string"
        },
        {
          "internalType": "euint32",
          "name": "encryptedScore",
          "type": "bytes32"
        },
        {
          "internalType": "enum SkillForge.ProofStatus",
          "name": "status",
          "type": "uint8"
        },
        {
          "internalType": "address",
          "name": "validator",
          "type": "address"
        },
        {
          "internalType": "uint256",
          "name": "submittedAt",
          "type": "uint256"
        },
        {
          "internalType": "uint256",
          "name": "validatedAt",
          "type": "uint256"
        }
      ],
      "stateMutability": "view",
      "type": "function"
    },
    {
      "inputs": [],
      "name": "protocolId",
      "outputs": [
        {
          "internalType": "uint256",
          "name": "",
          "type": "uint256"
        }
      ],
      "stateMutability": "pure",
      "type": "function"
    },
    {
      "inputs": [
        {
          "internalType": "uint256",
          "name": "courseId",
          "type": "uint256"
        },
        {
          "internalType": "uint256",
          "name": "challengeId",
          "type": "uint256"
        },
        {
          "internalType": "string",
          "name": "proofCID",
          "type": "string"
        },
        {
          "internalType": "externalEuint32",
          "name": "encryptedScore",
          "type": "bytes32"
        },
        {
          "internalType": "bytes",
          "name": "inputProof",
          "type": "bytes"
        }
      ],
      "name": "submitProof",
      "outputs": [
        {
          "internalType": "uint256",
          "name": "proofId",
          "type": "uint256"
        }
      ],
      "stateMutability": "nonpayable",
      "type": "function"
    },
    {
      "inputs": [
        {
          "internalType": "uint256",
          "name": "courseId",
          "type": "uint256"
        },
        {
          "internalType": "externalEuint32",
          "name": "encryptedTotalChallenges",
          "type": "bytes32"
        },
        {
          "internalType": "bytes",
          "name": "inputProof",
          "type": "bytes"
        }
      ],
      "name": "updateCourseChallenges",
      "outputs": [],
      "stateMutability": "nonpayable",
      "type": "function"
    },
    {
      "inputs": [
        {
          "internalType": "uint256",
          "name": "proofId",
          "type": "uint256"
        },
        {
          "internalType": "enum SkillForge.ProofStatus",
          "name": "status",
          "type": "uint8"
        },
        {
          "internalType": "externalEuint32",
          "name": "newEncryptedScore",
          "type": "bytes32"
        },
        {
          "internalType": "bytes",
          "name": "inputProof",
          "type": "bytes"
        }
      ],
      "name": "validateProof",
      "outputs": [],
      "stateMutability": "nonpayable",
      "type": "function"
    }
  ],
  "transactionHash": "0xd5d1ead462c720a72b28cba167df07c95c8504fa614d8338aa3a7f4fa49be0b1",
  "args": [],
  "numDeployments": 1,
  "solcInputHash": "00330aa1aa68ae9ff0f48bd2827fad4b",
  "bytecode": "0x608060405260015f5560018055600160025534801561001c575f5ffd5b506101976100bb604080516080810182525f80825260208201819052918101829052606081019190915250604080516080810182527350157cffd6bbfa2dece204a89ec419c23ef5755d815273cd3ab3bd6bcc0c0bf3e27912a92043e817b1cf69602082015273a02cda4ca3a71d7c46997716f4283aa851c2881291810191909152731364cbbf2cdf5032c47d8226a6f6fbd2afcdacac606082015290565b80517f9e7b61f58c47dc699ac88507c4f5bb9f121c03808c5676a8078fe583e464970080546001600160a01b03199081166001600160a01b039384161790915560208301517f9e7b61f58c47dc699ac88507c4f5bb9f121c03808c5676a8078fe583e46497018054831691841691909117905560408301517f9e7b61f58c47dc699ac88507c4f5bb9f121c03808c5676a8078fe583e46497028054831691841691909117905560608301517f9e7b61f58c47dc699ac88507c4f5bb9f121c03808c5676a8078fe583e46497038054909216921691909117905550565b612061806101a45f395ff3fe608060405234801561000f575f5ffd5b5060043610610163575f3560e01c80638d838622116100c7578063cc20d8b71161007d578063d238693d11610063578063d238693d1461032a578063da1f12ab1461033d578063fc3ed30814610345575f5ffd5b8063cc20d8b714610304578063d002074914610317575f5ffd5b806398e36d8b116100ad57806398e36d8b146102af5780639ddaf5aa146102d3578063af0ddfc8146102fb575f5ffd5b80638d8386221461026757806396f979d21461028a575f5ffd5b8063508e6c9f1161011c578063671fd89711610102578063671fd897146102395780637d5ee0261461024c5780637d83daf21461025f575f5ffd5b8063508e6c9f146101f45780635871416314610207575f5ffd5b806311149ada1161014c57806311149ada146101a657806311300356146101cc5780632cb5af39146101df575f5ffd5b806308ac8d22146101675780630b91e28d14610183575b5f5ffd5b61017060015481565b6040519081526020015b60405180910390f35b61019661019136600461186a565b610358565b60405161017a94939291906118af565b6101b96101b436600461186a565b610487565b60405161017a979695949392919061190b565b6101706101da366004611965565b6105ca565b6101f26101ed366004611a1b565b6106dc565b005b610170610202366004611b09565b6107b5565b610229610215366004611baa565b60066020525f908152604090205460ff1681565b604051901515815260200161017a565b610170610247366004611bc3565b610a0b565b61017061025a36600461186a565b610bb7565b6101705f5481565b61027a61027536600461186a565b610c1a565b60405161017a9493929190611c40565b61029d61029836600461186a565b610d35565b60405161017a96959493929190611c78565b6102c26102bd36600461186a565b610e00565b60405161017a959493929190611cbe565b6102e66102e136600461186a565b610ebe565b60405161017a99989796959493929190611cf9565b61017060025481565b610170610312366004611d67565b610fa5565b6101f2610325366004611dbf565b611127565b6101f2610338366004611e0a565b6113c6565b612711610170565b61017061035336600461186a565b611424565b5f818152600360205260408120805460609183918291906001600160a01b03166103c95760405162461bcd60e51b815260206004820152601060248201527f436f75727365206e6f7420666f756e640000000000000000000000000000000060448201526064015b60405180910390fd5b8054600482015460058301546001840180546001600160a01b0390941693909260ff16919083906103f990611e43565b80601f016020809104026020016040519081016040528092919081815260200182805461042590611e43565b80156104705780601f1061044757610100808354040283529160200191610470565b820191905f5260205f20905b81548152906001019060200180831161045357829003601f168201915b505050505092509450945094509450509193509193565b5f8181526004602052604081206002810154829182916060918391829182916001600160a01b03166104ed5760405162461bcd60e51b815260206004820152600f60248201526e141c9bdbd9881b9bdd08199bdd5b99608a1b60448201526064016103c0565b805460018201546002830154600584015460068501546003860180546001600160a01b0394851694919360ff8116936101009091049092169190849061053290611e43565b80601f016020809104026020016040519081016040528092919081815260200182805461055e90611e43565b80156105a95780601f10610580576101008083540402835291602001916105a9565b820191905f5260205f20905b81548152906001019060200180831161058c57829003601f168201915b50505050509350975097509750975097509750975050919395979092949650565b5f816106185760405162461bcd60e51b815260206004820152600960248201527f4e6f2070726f6f6673000000000000000000000000000000000000000000000060448201526064016103c0565b5f6106225f611487565b90505f61062e5f611487565b90505f5b848110156106c6575f60045f88888581811061065057610650611e7b565b9050602002013581526020019081526020015f20905060016002811115610679576106796118e3565b600582015460ff166002811115610692576106926118e3565b036106bd576106a5848260040154611499565b93506106ba836106b56001611487565b611499565b92505b50600101610632565b506106d0826114ce565b50909150505b92915050565b5f8481526003602052604090205484906001600160a01b031633146107435760405162461bcd60e51b815260206004820152601260248201527f4e6f7420636f757273652063726561746f72000000000000000000000000000060448201526064016103c0565b5f6107838585858080601f0160208091040260200160405190810160405280939291908181526020018383808284375f920191909152506114dd92505050565b5f87815260036020526040902060020181905590506107a1816114ce565b506107ac81336114ea565b50505050505050565b5f8681526003602052604081206004015460ff166108155760405162461bcd60e51b815260206004820152601160248201527f436f75727365206e6f742061637469766500000000000000000000000000000060448201526064016103c0565b5f6108558585858080601f0160208091040260200160405190810160405280939291908181526020018383808284375f920191909152506114dd92505050565b600180549192505f61086683611e8f565b919050559150604051806101200160405280898152602001888152602001336001600160a01b031681526020018781526020018281526020015f60028111156108b1576108b16118e3565b81525f60208083018290524260408085019190915260609384018390528683526004825291829020845181559084015160018201559083015160028201805473ffffffffffffffffffffffffffffffffffffffff19166001600160a01b0390921691909117905590820151600382019061092b9082611eff565b506080820151600482015560a082015160058201805460ff19166001836002811115610959576109596118e3565b021790555060c082015160058201805474ffffffffffffffffffffffffffffffffffffffff0019166101006001600160a01b03909316830217905560e08301516006830155909101516007909101556109b1816114ce565b506109bc81336114ea565b50336001600160a01b031688837f380904a35de4f0af1fc624c50d5e175bc3d642a207ed882e3a7e1ec0606ac5d7896040516109f89190611fba565b60405180910390a4509695505050505050565b5f8581526003602052604081206004015460ff16610a6b5760405162461bcd60e51b815260206004820152601160248201527f436f75727365206e6f742061637469766500000000000000000000000000000060448201526064016103c0565b5f610aab8585858080601f0160208091040260200160405190810160405280939291908181526020018383808284375f920191909152506114fc92505050565b600280549192505f610abc83611e8f565b909155506040805160a0810182528981523360208083019182528284018b8152606084018790524260808501525f868152600590925293902082518155905160018201805473ffffffffffffffffffffffffffffffffffffffff19166001600160a01b039092169190911790559151929450916002820190610b3e9082611eff565b5060608201516003820155608090910151600490910155610b5e816114ce565b50610b6981336114ea565b50336001600160a01b031687837fb5ca2476de1df07f23a201533375e87b8ff5cd14d8b1984a0e1a006348ed109689604051610ba59190611fba565b60405180910390a45095945050505050565b5f81815260046020526040812060028101546001600160a01b0316610c105760405162461bcd60e51b815260206004820152600f60248201526e141c9bdbd9881b9bdd08199bdd5b99608a1b60448201526064016103c0565b6004015492915050565b5f818152600560205260408120600181015482916060918391906001600160a01b0316610c7b5760405162461bcd60e51b815260206004820152600f60248201526e10985919d9481b9bdd08199bdd5b99608a1b60448201526064016103c0565b8054600182015460048301546002840180546001600160a01b03909316929091908290610ca790611e43565b80601f0160208091040260200160405190810160405280929190818152602001828054610cd390611e43565b8015610d1e5780601f10610cf557610100808354040283529160200191610d1e565b820191905f5260205f20905b815481529060010190602001808311610d0157829003601f168201915b505050505091509450945094509450509193509193565b60036020525f9081526040902080546001820180546001600160a01b039092169291610d6090611e43565b80601f0160208091040260200160405190810160405280929190818152602001828054610d8c90611e43565b8015610dd75780601f10610dae57610100808354040283529160200191610dd7565b820191905f5260205f20905b815481529060010190602001808311610dba57829003601f168201915b5050506002840154600385015460048601546005909601549495919490935060ff909116915086565b60056020525f908152604090208054600182015460028301805492936001600160a01b0390921692610e3190611e43565b80601f0160208091040260200160405190810160405280929190818152602001828054610e5d90611e43565b8015610ea85780601f10610e7f57610100808354040283529160200191610ea8565b820191905f5260205f20905b815481529060010190602001808311610e8b57829003601f168201915b5050505050908060030154908060040154905085565b60046020525f90815260409020805460018201546002830154600384018054939492936001600160a01b039092169291610ef790611e43565b80601f0160208091040260200160405190810160405280929190818152602001828054610f2390611e43565b8015610f6e5780601f10610f4557610100808354040283529160200191610f6e565b820191905f5260205f20905b815481529060010190602001808311610f5157829003601f168201915b505050506004830154600584015460068501546007909501549394919360ff821693506101009091046001600160a01b0316919089565b5f5f610fe68585858080601f0160208091040260200160405190810160405280939291908181526020018383808284375f920191909152506114dd92505050565b5f805491925080610ff683611e8f565b9190505591505f6110065f611487565b9050611011816114ce565b506040805160c08101825233815260208082018a8152828401869052606083018590526001608084018190524260a08501525f8881526003909352939091208251815473ffffffffffffffffffffffffffffffffffffffff19166001600160a01b039091161781559051919290919082019061108d9082611eff565b506040820151600282015560608201516003820155608082015160048201805460ff191691151591909117905560a0909101516005909101556110cf826114ce565b506110da82336114ea565b50336001600160a01b0316837f68ebf2ffa5dad90bc45e9ddb216fc96d10248e6ed62f0c107febaa247979098c896040516111159190611fba565b60405180910390a35050949350505050565b335f9081526006602052604090205460ff166111855760405162461bcd60e51b815260206004820152601860248201527f4e6f7420617574686f72697a65642076616c696461746f72000000000000000060448201526064016103c0565b5f85815260046020526040812090600582015460ff1660028111156111ac576111ac6118e3565b146111f95760405162461bcd60e51b815260206004820152601160248201527f416c72656164792076616c69646174656400000000000000000000000000000060448201526064016103c0565b5f85600281111561120c5761120c6118e3565b036112595760405162461bcd60e51b815260206004820152600e60248201527f496e76616c69642073746174757300000000000000000000000000000000000060448201526064016103c0565b600185600281111561126d5761126d6118e3565b0361132d575f6112b28585858080601f0160208091040260200160405190810160405280939291908181526020018383808284375f920191909152506114dd92505050565b6004830181905590506112c4816114ce565b5060028201546112de9082906001600160a01b03166114ea565b506112e981336114ea565b5081545f90815260036020819052604090912090810154611309906114ce565b5061131981600301546001611509565b60038201819055611329906114ce565b5050505b60058101805486919060ff1916600183600281111561134e5761134e6118e3565b021790555060058101805474ffffffffffffffffffffffffffffffffffffffff0019163361010081029190911790915542600783015560405187907f8feb6a3f0fbc61ce96771bcdc6389328069708e1a9b74f9f5d1730e6daa7212f906113b6908990611fcc565b60405180910390a3505050505050565b6001600160a01b0382165f81815260066020908152604091829020805460ff191685151590811790915591519182527fd68b6dba39df78c7fb29b15a54e2fbaaee93bb0024d3e4d3414c6b5b07c96ef7910160405180910390a25050565b5f81815260056020526040812060018101546001600160a01b031661147d5760405162461bcd60e51b815260206004820152600f60248201526e10985919d9481b9bdd08199bdd5b99608a1b60448201526064016103c0565b6003015492915050565b5f6106d68263ffffffff16600461152d565b5f826114ab576114a85f611487565b92505b816114bc576114b95f611487565b91505b6114c783835f6115ea565b9392505050565b5f6114d982306116ca565b5090565b5f6114c78383600461174a565b5f6114f583836116ca565b5090919050565b5f6114c78383600561174a565b5f8261151b576115185f611487565b92505b6114c78363ffffffff841660016115ea565b7f9e7b61f58c47dc699ac88507c4f5bb9f121c03808c5676a8078fe583e464970154604051639cd07acb60e01b81525f917f9e7b61f58c47dc699ac88507c4f5bb9f121c03808c5676a8078fe583e4649700916001600160a01b0390911690639cd07acb906115a29087908790600401611fea565b6020604051808303815f875af11580156115be573d5f5f3e3d5ffd5b505050506040513d601f19601f820116820180604052508101906115e29190611ffe565b949350505050565b5f5f82156115fd5750600160f81b611600565b505f5b5f7f9e7b61f58c47dc699ac88507c4f5bb9f121c03808c5676a8078fe583e4649700600181015460405163022f65e760e31b815260048101899052602481018890527fff00000000000000000000000000000000000000000000000000000000000000851660448201529192506001600160a01b03169063117b2f38906064016020604051808303815f875af115801561169c573d5f5f3e3d5ffd5b505050506040513d601f19601f820116820180604052508101906116c09190611ffe565b9695505050505050565b5f7f9e7b61f58c47dc699ac88507c4f5bb9f121c03808c5676a8078fe583e46497008054604051635ca4b5b160e11b8152600481018690526001600160a01b03858116602483015292935091169063b9496b62906044015f604051808303815f87803b158015611738575f5ffd5b505af11580156107ac573d5f5f3e3d5ffd5b7f9e7b61f58c47dc699ac88507c4f5bb9f121c03808c5676a8078fe583e46497015460405163196d0b9b60e01b81525f917f9e7b61f58c47dc699ac88507c4f5bb9f121c03808c5676a8078fe583e4649700916001600160a01b039091169063196d0b9b906117c3908890339089908990600401612015565b6020604051808303815f875af11580156117df573d5f5f3e3d5ffd5b505050506040513d601f19601f820116820180604052508101906118039190611ffe565b8154604051630f8e573b60e21b8152600481018390523360248201529193506001600160a01b031690633e395cec906044015f604051808303815f87803b15801561184c575f5ffd5b505af115801561185e573d5f5f3e3d5ffd5b50505050509392505050565b5f6020828403121561187a575f5ffd5b5035919050565b5f81518084528060208401602086015e5f602082860101526020601f19601f83011685010191505092915050565b6001600160a01b0385168152608060208201525f6118d06080830186611881565b9315156040830152506060015292915050565b634e487b7160e01b5f52602160045260245ffd5b60038110611907576119076118e3565b9052565b8781528660208201526001600160a01b038616604082015260e060608201525f61193860e0830187611881565b905061194760808301866118f7565b6001600160a01b039390931660a082015260c0015295945050505050565b5f5f60208385031215611976575f5ffd5b823567ffffffffffffffff81111561198c575f5ffd5b8301601f8101851361199c575f5ffd5b803567ffffffffffffffff8111156119b2575f5ffd5b8560208260051b84010111156119c6575f5ffd5b6020919091019590945092505050565b5f5f83601f8401126119e6575f5ffd5b50813567ffffffffffffffff8111156119fd575f5ffd5b602083019150836020828501011115611a14575f5ffd5b9250929050565b5f5f5f5f60608587031215611a2e575f5ffd5b8435935060208501359250604085013567ffffffffffffffff811115611a52575f5ffd5b611a5e878288016119d6565b95989497509550505050565b634e487b7160e01b5f52604160045260245ffd5b5f82601f830112611a8d575f5ffd5b813567ffffffffffffffff811115611aa757611aa7611a6a565b604051601f8201601f19908116603f0116810167ffffffffffffffff81118282101715611ad657611ad6611a6a565b604052818152838201602001851015611aed575f5ffd5b816020850160208301375f918101602001919091529392505050565b5f5f5f5f5f5f60a08789031215611b1e575f5ffd5b8635955060208701359450604087013567ffffffffffffffff811115611b42575f5ffd5b611b4e89828a01611a7e565b94505060608701359250608087013567ffffffffffffffff811115611b71575f5ffd5b611b7d89828a016119d6565b979a9699509497509295939492505050565b80356001600160a01b0381168114611ba5575f5ffd5b919050565b5f60208284031215611bba575f5ffd5b6114c782611b8f565b5f5f5f5f5f60808688031215611bd7575f5ffd5b85359450602086013567ffffffffffffffff811115611bf4575f5ffd5b611c0088828901611a7e565b94505060408601359250606086013567ffffffffffffffff811115611c23575f5ffd5b611c2f888289016119d6565b969995985093965092949392505050565b8481526001600160a01b0384166020820152608060408201525f611c676080830185611881565b905082606083015295945050505050565b6001600160a01b038716815260c060208201525f611c9960c0830188611881565b6040830196909652506060810193909352901515608083015260a09091015292915050565b8581526001600160a01b038516602082015260a060408201525f611ce560a0830186611881565b606083019490945250608001529392505050565b8981528860208201526001600160a01b038816604082015261012060608201525f611d28610120830189611881565b9050866080830152611d3d60a08301876118f7565b6001600160a01b03851660c08301528360e0830152826101008301529a9950505050505050505050565b5f5f5f5f60608587031215611d7a575f5ffd5b843567ffffffffffffffff811115611d90575f5ffd5b611d9c87828801611a7e565b94505060208501359250604085013567ffffffffffffffff811115611a52575f5ffd5b5f5f5f5f5f60808688031215611dd3575f5ffd5b85359450602086013560038110611de8575f5ffd5b935060408601359250606086013567ffffffffffffffff811115611c23575f5ffd5b5f5f60408385031215611e1b575f5ffd5b611e2483611b8f565b915060208301358015158114611e38575f5ffd5b809150509250929050565b600181811c90821680611e5757607f821691505b602082108103611e7557634e487b7160e01b5f52602260045260245ffd5b50919050565b634e487b7160e01b5f52603260045260245ffd5b5f60018201611eac57634e487b7160e01b5f52601160045260245ffd5b5060010190565b601f821115611efa57805f5260205f20601f840160051c81016020851015611ed85750805b601f840160051c820191505b81811015611ef7575f8155600101611ee4565b50505b505050565b815167ffffffffffffffff811115611f1957611f19611a6a565b611f2d81611f278454611e43565b84611eb3565b6020601f821160018114611f5f575f8315611f485750848201515b5f19600385901b1c1916600184901b178455611ef7565b5f84815260208120601f198516915b82811015611f8e5787850151825560209485019460019092019101611f6e565b5084821015611fab57868401515f19600387901b60f8161c191681555b50505050600190811b01905550565b602081525f6114c76020830184611881565b602081016106d682846118f7565b60548110611907576119076118e3565b828152604081016114c76020830184611fda565b5f6020828403121561200e575f5ffd5b5051919050565b8481526001600160a01b0384166020820152608060408201525f61203c6080830185611881565b905061204b6060830184611fda565b9594505050505056fea164736f6c634300081b000a",
  "devdoc": {
    "kind": "dev",
    "methods": {
      "calculateTotalScore(uint256[])": {
        "details": "FHEview",
        "params": {
          "proofIds": "ID"
        }
      },
      "claimBadge(uint256,string,bytes32,bytes)": {
        "params": {
          "badgeCID": "IPFS CID for badge metadata",
          "courseId": "ID",
          "encryptedTotalScore": ""
        }
      },
      "forgeCourse(string,bytes32,bytes)": {
        "params": {
          "courseCID": "IPFS CID containing course metadata",
          "encryptedTotalChallenges": ""
        }
      },
      "getBadgeEncryptedScore(uint256)": {
        "params": {
          "badgeId": "ID"
        },
        "returns": {
          "encryptedTotalScoreHandle": "handlebytes32"
        }
      },
      "getProofEncryptedScore(uint256)": {
        "params": {
          "proofId": "ID"
        },
        "returns": {
          "encryptedScoreHandle": "handlebytes32"
        }
      },
      "submitProof(uint256,uint256,string,bytes32,bytes)": {
        "params": {
          "challengeId": "ID",
          "courseId": "ID",
          "encryptedScore": "",
          "proofCID": "IPFS CID containing proof content"
        }
      },
      "validateProof(uint256,uint8,bytes32,bytes)": {
        "params": {
          "newEncryptedScore": "",
          "proofId": "ID",
          "status": ""
        }
      }
    },
    "title": "SkillForge - ",
    "version": 1
  },
  "userdoc": {
    "kind": "user",
    "methods": {
      "calculateTotalScore(uint256[])": {
        "notice": ""
      },
      "claimBadge(uint256,string,bytes32,bytes)": {
        "notice": ""
      },
      "forgeCourse(string,bytes32,bytes)": {
        "notice": ""
      },
      "getBadge(uint256)": {
        "notice": ""
      },
      "getBadgeEncryptedScore(uint256)": {
        "notice": "handle"
      },
      "getCourse(uint256)": {
        "notice": ""
      },
      "getProof(uint256)": {
        "notice": ""
      },
      "getProofEncryptedScore(uint256)": {
        "notice": "handle"
      },
      "grantValidatorRole(address,bool)": {
        "notice": "/"
      },
      "submitProof(uint256,uint256,string,bytes32,bytes)": {
        "notice": ""
      },
      "updateCourseChallenges(uint256,bytes32,bytes)": {
        "notice": ""
      },
      "validateProof(uint256,uint8,bytes32,bytes)": {
        "notice": ""
      }
    },
    "notice": "FHEVM",
    "version": 1
  },
  "storageLayout": {
    "storage": [
      {
        "astId": 39093,
        "contract": "contracts/SkillForge.sol:SkillForge",
        "label": "nextCourseId",
        "offset": 0,
        "slot": "0",
        "type": "t_uint256"
      },
      {
        "astId": 39096,
        "contract": "contracts/SkillForge.sol:SkillForge",
        "label": "nextProofId",
        "offset": 0,
        "slot": "1",
        "type": "t_uint256"
      },
      {
        "astId": 39099,
        "contract": "contracts/SkillForge.sol:SkillForge",
        "label": "nextBadgeId",
        "offset": 0,
        "slot": "2",
        "type": "t_uint256"
      },
      {
        "astId": 39104,
        "contract": "contracts/SkillForge.sol:SkillForge",
        "label": "courses",
        "offset": 0,
        "slot": "3",
        "type": "t_mapping(t_uint256,t_struct(Course)39057_storage)"
      },
      {
        "astId": 39109,
        "contract": "contracts/SkillForge.sol:SkillForge",
        "label": "proofs",
        "offset": 0,
        "slot": "4",
        "type": "t_mapping(t_uint256,t_struct(Proof)39078_storage)"
      },
      {
        "astId": 39114,
        "contract": "contracts/SkillForge.sol:SkillForge",
        "label": "badges",
        "offset": 0,
        "slot": "5",
        "type": "t_mapping(t_uint256,t_struct(Badge)39090_storage)"
      },
      {
        "astId": 39118,
        "contract": "contracts/SkillForge.sol:SkillForge",
        "label": "authorizedValidators",
        "offset": 0,
        "slot": "6",
        "type": "t_mapping(t_address,t_bool)"
      }
    ],
    "types": {
      "t_address": {
        "encoding": "inplace",
        "label": "address",
        "numberOfBytes": "20"
      },
      "t_bool": {
        "encoding": "inplace",
        "label": "bool",
        "numberOfBytes": "1"
      },
      "t_enum(ProofStatus)39042": {
        "encoding": "inplace",
        "label": "enum SkillForge.ProofStatus",
        "numberOfBytes": "1"
      },
      "t_mapping(t_address,t_bool)": {
        "encoding": "mapping",
        "key": "t_address",
        "label": "mapping(address => bool)",
        "numberOfBytes": "32",
        "value": "t_bool"
      },
      "t_mapping(t_uint256,t_struct(Badge)39090_storage)": {
        "encoding": "mapping",
        "key": "t_uint256",
        "label": "mapping(uint256 => struct SkillForge.Badge)",
        "numberOfBytes": "32",
        "value": "t_struct(Badge)39090_storage"
      },
      "t_mapping(t_uint256,t_struct(Course)39057_storage)": {
        "encoding": "mapping",
        "key": "t_uint256",
        "label": "mapping(uint256 => struct SkillForge.Course)",
        "numberOfBytes": "32",
        "value": "t_struct(Course)39057_storage"
      },
      "t_mapping(t_uint256,t_struct(Proof)39078_storage)": {
        "encoding": "mapping",
        "key": "t_uint256",
        "label": "mapping(uint256 => struct SkillForge.Proof)",
        "numberOfBytes": "32",
        "value": "t_struct(Proof)39078_storage"
      },
      "t_string_storage": {
        "encoding": "bytes",
        "label": "string",
        "numberOfBytes": "32"
      },
      "t_struct(Badge)39090_storage": {
        "encoding": "inplace",
        "label": "struct SkillForge.Badge",
        "members": [
          {
            "astId": 39080,
            "contract": "contracts/SkillForge.sol:SkillForge",
            "label": "courseId",
            "offset": 0,
            "slot": "0",
            "type": "t_uint256"
          },
          {
            "astId": 39082,
            "contract": "contracts/SkillForge.sol:SkillForge",
            "label": "earner",
            "offset": 0,
            "slot": "1",
            "type": "t_address"
          },
          {
            "astId": 39084,
            "contract": "contracts/SkillForge.sol:SkillForge",
            "label": "badgeCID",
            "offset": 0,
            "slot": "2",
            "type": "t_string_storage"
          },
          {
            "astId": 39087,
            "contract": "contracts/SkillForge.sol:SkillForge",
            "label": "encryptedTotalScore",
            "offset": 0,
            "slot": "3",
            "type": "t_userDefinedValueType(euint64)39956"
          },
          {
            "astId": 39089,
            "contract": "contracts/SkillForge.sol:SkillForge",
            "label": "claimedAt",
            "offset": 0,
            "slot": "4",
            "type": "t_uint256"
          }
        ],
        "numberOfBytes": "160"
      },
      "t_struct(Course)39057_storage": {
        "encoding": "inplace",
        "label": "struct SkillForge.Course",
        "members": [
          {
            "astId": 39044,
            "contract": "contracts/SkillForge.sol:SkillForge",
            "label": "creator",
            "offset": 0,
            "slot": "0",
            "type": "t_address"
          },
          {
            "astId": 39046,
            "contract": "contracts/SkillForge.sol:SkillForge",
            "label": "courseCID",
            "offset": 0,
            "slot": "1",
            "type": "t_string_storage"
          },
          {
            "astId": 39049,
            "contract": "contracts/SkillForge.sol:SkillForge",
            "label": "totalChallenges",
            "offset": 0,
            "slot": "2",
            "type": "t_userDefinedValueType(euint32)39948"
          },
          {
            "astId": 39052,
            "contract": "contracts/SkillForge.sol:SkillForge",
            "label": "completedChallenges",
            "offset": 0,
            "slot": "3",
            "type": "t_userDefinedValueType(euint32)39948"
          },
          {
            "astId": 39054,
            "contract": "contracts/SkillForge.sol:SkillForge",
            "label": "active",
            "offset": 0,
            "slot": "4",
            "type": "t_bool"
          },
          {
            "astId": 39056,
            "contract": "contracts/SkillForge.sol:SkillForge",
            "label": "forgedAt",
            "offset": 0,
            "slot": "5",
            "type": "t_uint256"
          }
        ],
        "numberOfBytes": "192"
      },
      "t_struct(Proof)39078_storage": {
        "encoding": "inplace",
        "label": "struct SkillForge.Proof",
        "members": [
          {
            "astId": 39059,
            "contract": "contracts/SkillForge.sol:SkillForge",
            "label": "courseId",
            "offset": 0,
            "slot": "0",
            "type": "t_uint256"
          },
          {
            "astId": 39061,
            "contract": "contracts/SkillForge.sol:SkillForge",
            "label": "challengeId",
            "offset": 0,
            "slot": "1",
            "type": "t_uint256"
          },
          {
            "astId": 39063,
            "contract": "contracts/SkillForge.sol:SkillForge",
            "label": "learner",
            "offset": 0,
            "slot": "2",
            "type": "t_address"
          },
          {
            "astId": 39065,
            "contract": "contracts/SkillForge.sol:SkillForge",
            "label": "proofCID",
            "offset": 0,
            "slot": "3",
            "type": "t_string_storage"
          },
          {
            "astId": 39068,
            "contract": "contracts/SkillForge.sol:SkillForge",
            "label": "encryptedScore",
            "offset": 0,
            "slot": "4",
            "type": "t_userDefinedValueType(euint32)39948"
          },
          {
            "astId": 39071,
            "contract": "contracts/SkillForge.sol:SkillForge",
            "label": "status",
            "offset": 0,
            "slot": "5",
            "type": "t_enum(ProofStatus)39042"
          },
          {
            "astId": 39073,
            "contract": "contracts/SkillForge.sol:SkillForge",
            "label": "validator",
            "offset": 1,
            "slot": "5",
            "type": "t_address"
          },
          {
            "astId": 39075,
            "contract": "contracts/SkillForge.sol:SkillForge",
            "label": "submittedAt",
            "offset": 0,
            "slot": "6",
            "type": "t_uint256"
          },
          {
            "astId": 39077,
            "contract": "contracts/SkillForge.sol:SkillForge",
            "label": "validatedAt",
            "offset": 0,
            "slot": "7",
            "type": "t_uint256"
          }
        ],
        "numberOfBytes": "256"
      },
      "t_uint256": {
        "encoding": "inplace",
        "label": "uint256",
        "numberOfBytes": "32"
      },
      "t_userDefinedValueType(euint32)39948": {
        "encoding": "inplace",
        "label": "euint32",
        "numberOfBytes": "32"
      },
      "t_userDefinedValueType(euint64)39956": {
        "encoding": "inplace",
        "label": "euint64",
        "numberOfBytes": "32"
      }
    }
  }
}